{
  "_format": "hh-sol-artifact-1",
  "contractName": "MyNFTs",
  "sourceName": "contracts/NFTs.sol",
  "abi": [
    {
      "inputs": [],
      "stateMutability": "nonpayable",
      "type": "constructor"
    },
    {
      "anonymous": false,
      "inputs": [
        {
          "indexed": true,
          "internalType": "address",
          "name": "owner",
          "type": "address"
        },
        {
          "indexed": true,
          "internalType": "address",
          "name": "approved",
          "type": "address"
        },
        {
          "indexed": true,
          "internalType": "uint256",
          "name": "tokenId",
          "type": "uint256"
        }
      ],
      "name": "Approval",
      "type": "event"
    },
    {
      "anonymous": false,
      "inputs": [
        {
          "indexed": true,
          "internalType": "address",
          "name": "owner",
          "type": "address"
        },
        {
          "indexed": true,
          "internalType": "address",
          "name": "operator",
          "type": "address"
        },
        {
          "indexed": false,
          "internalType": "bool",
          "name": "approved",
          "type": "bool"
        }
      ],
      "name": "ApprovalForAll",
      "type": "event"
    },
    {
      "anonymous": false,
      "inputs": [
        {
          "indexed": false,
          "internalType": "address",
          "name": "sender",
          "type": "address"
        },
        {
          "indexed": false,
          "internalType": "uint256",
          "name": "tokenId",
          "type": "uint256"
        }
      ],
      "name": "NewEpicNFTMinted",
      "type": "event"
    },
    {
      "anonymous": false,
      "inputs": [
        {
          "indexed": true,
          "internalType": "address",
          "name": "from",
          "type": "address"
        },
        {
          "indexed": true,
          "internalType": "address",
          "name": "to",
          "type": "address"
        },
        {
          "indexed": true,
          "internalType": "uint256",
          "name": "tokenId",
          "type": "uint256"
        }
      ],
      "name": "Transfer",
      "type": "event"
    },
    {
      "inputs": [
        {
          "internalType": "address",
          "name": "to",
          "type": "address"
        },
        {
          "internalType": "uint256",
          "name": "tokenId",
          "type": "uint256"
        }
      ],
      "name": "approve",
      "outputs": [],
      "stateMutability": "nonpayable",
      "type": "function"
    },
    {
      "inputs": [
        {
          "internalType": "address",
          "name": "owner",
          "type": "address"
        }
      ],
      "name": "balanceOf",
      "outputs": [
        {
          "internalType": "uint256",
          "name": "",
          "type": "uint256"
        }
      ],
      "stateMutability": "view",
      "type": "function"
    },
    {
      "inputs": [
        {
          "internalType": "uint256",
          "name": "tokenId",
          "type": "uint256"
        }
      ],
      "name": "getApproved",
      "outputs": [
        {
          "internalType": "address",
          "name": "",
          "type": "address"
        }
      ],
      "stateMutability": "view",
      "type": "function"
    },
    {
      "inputs": [],
      "name": "howManyNFTs",
      "outputs": [
        {
          "internalType": "uint256",
          "name": "",
          "type": "uint256"
        }
      ],
      "stateMutability": "view",
      "type": "function"
    },
    {
      "inputs": [
        {
          "internalType": "address",
          "name": "owner",
          "type": "address"
        },
        {
          "internalType": "address",
          "name": "operator",
          "type": "address"
        }
      ],
      "name": "isApprovedForAll",
      "outputs": [
        {
          "internalType": "bool",
          "name": "",
          "type": "bool"
        }
      ],
      "stateMutability": "view",
      "type": "function"
    },
    {
      "inputs": [],
      "name": "makeAnEpicNFT",
      "outputs": [],
      "stateMutability": "nonpayable",
      "type": "function"
    },
    {
      "inputs": [],
      "name": "name",
      "outputs": [
        {
          "internalType": "string",
          "name": "",
          "type": "string"
        }
      ],
      "stateMutability": "view",
      "type": "function"
    },
    {
      "inputs": [],
      "name": "numberOfNFTs",
      "outputs": [
        {
          "internalType": "uint256",
          "name": "",
          "type": "uint256"
        }
      ],
      "stateMutability": "view",
      "type": "function"
    },
    {
      "inputs": [
        {
          "internalType": "uint256",
          "name": "tokenId",
          "type": "uint256"
        }
      ],
      "name": "ownerOf",
      "outputs": [
        {
          "internalType": "address",
          "name": "",
          "type": "address"
        }
      ],
      "stateMutability": "view",
      "type": "function"
    },
    {
      "inputs": [
        {
          "internalType": "uint256",
          "name": "tokenId",
          "type": "uint256"
        }
      ],
      "name": "pickRandomColor",
      "outputs": [
        {
          "internalType": "string",
          "name": "",
          "type": "string"
        }
      ],
      "stateMutability": "view",
      "type": "function"
    },
    {
      "inputs": [
        {
          "internalType": "uint256",
          "name": "tokenId",
          "type": "uint256"
        }
      ],
      "name": "pickRandomFirstWord",
      "outputs": [
        {
          "internalType": "string",
          "name": "",
          "type": "string"
        }
      ],
      "stateMutability": "view",
      "type": "function"
    },
    {
      "inputs": [
        {
          "internalType": "uint256",
          "name": "tokenId",
          "type": "uint256"
        }
      ],
      "name": "pickRandomSecondWord",
      "outputs": [
        {
          "internalType": "string",
          "name": "",
          "type": "string"
        }
      ],
      "stateMutability": "view",
      "type": "function"
    },
    {
      "inputs": [
        {
          "internalType": "uint256",
          "name": "tokenId",
          "type": "uint256"
        }
      ],
      "name": "pickRandomThirdWord",
      "outputs": [
        {
          "internalType": "string",
          "name": "",
          "type": "string"
        }
      ],
      "stateMutability": "view",
      "type": "function"
    },
    {
      "inputs": [
        {
          "internalType": "address",
          "name": "from",
          "type": "address"
        },
        {
          "internalType": "address",
          "name": "to",
          "type": "address"
        },
        {
          "internalType": "uint256",
          "name": "tokenId",
          "type": "uint256"
        }
      ],
      "name": "safeTransferFrom",
      "outputs": [],
      "stateMutability": "nonpayable",
      "type": "function"
    },
    {
      "inputs": [
        {
          "internalType": "address",
          "name": "from",
          "type": "address"
        },
        {
          "internalType": "address",
          "name": "to",
          "type": "address"
        },
        {
          "internalType": "uint256",
          "name": "tokenId",
          "type": "uint256"
        },
        {
          "internalType": "bytes",
          "name": "_data",
          "type": "bytes"
        }
      ],
      "name": "safeTransferFrom",
      "outputs": [],
      "stateMutability": "nonpayable",
      "type": "function"
    },
    {
      "inputs": [
        {
          "internalType": "address",
          "name": "operator",
          "type": "address"
        },
        {
          "internalType": "bool",
          "name": "approved",
          "type": "bool"
        }
      ],
      "name": "setApprovalForAll",
      "outputs": [],
      "stateMutability": "nonpayable",
      "type": "function"
    },
    {
      "inputs": [
        {
          "internalType": "bytes4",
          "name": "interfaceId",
          "type": "bytes4"
        }
      ],
      "name": "supportsInterface",
      "outputs": [
        {
          "internalType": "bool",
          "name": "",
          "type": "bool"
        }
      ],
      "stateMutability": "view",
      "type": "function"
    },
    {
      "inputs": [],
      "name": "symbol",
      "outputs": [
        {
          "internalType": "string",
          "name": "",
          "type": "string"
        }
      ],
      "stateMutability": "view",
      "type": "function"
    },
    {
      "inputs": [
        {
          "internalType": "uint256",
          "name": "tokenId",
          "type": "uint256"
        }
      ],
      "name": "tokenURI",
      "outputs": [
        {
          "internalType": "string",
          "name": "",
          "type": "string"
        }
      ],
      "stateMutability": "view",
      "type": "function"
    },
    {
      "inputs": [
        {
          "internalType": "address",
          "name": "from",
          "type": "address"
        },
        {
          "internalType": "address",
          "name": "to",
          "type": "address"
        },
        {
          "internalType": "uint256",
          "name": "tokenId",
          "type": "uint256"
        }
      ],
      "name": "transferFrom",
      "outputs": [],
      "stateMutability": "nonpayable",
      "type": "function"
    }
  ],
  "bytecode": "0x608060405260405180610100016040528060d38152602001620052a860d3913960099080519060200190620000369291906200128e565b506040518060800160405280605681526020016200537b60569139600a9080519060200190620000689291906200128e565b50604051806102a001604052806040518060400160405280600381526020017f4c6f6c000000000000000000000000000000000000000000000000000000000081525081526020016040518060400160405280600481526020017f4b656b770000000000000000000000000000000000000000000000000000000081525081526020016040518060400160405280600481526020017f486168610000000000000000000000000000000000000000000000000000000081525081526020016040518060400160405280600481526020017f506666740000000000000000000000000000000000000000000000000000000081525081526020016040518060400160405280600381526020017f536d68000000000000000000000000000000000000000000000000000000000081525081526020016040518060400160405280600681526020017f426168616861000000000000000000000000000000000000000000000000000081525081526020016040518060400160405280600481526020017f4c4d414f0000000000000000000000000000000000000000000000000000000081525081526020016040518060400160405280600581526020017f4c4f54464c00000000000000000000000000000000000000000000000000000081525081526020016040518060400160405280600381526020017f464653000000000000000000000000000000000000000000000000000000000081525081526020016040518060400160405280600381526020017f49444b000000000000000000000000000000000000000000000000000000000081525081526020016040518060400160405280600381526020017f425242000000000000000000000000000000000000000000000000000000000081525081526020016040518060400160405280600281526020017f474700000000000000000000000000000000000000000000000000000000000081525081526020016040518060400160405280600281526020017f575000000000000000000000000000000000000000000000000000000000000081525081526020016040518060400160405280600381526020017f575446000000000000000000000000000000000000000000000000000000000081525081526020016040518060400160405280600481526020017f427275680000000000000000000000000000000000000000000000000000000081525081526020016040518060400160405280600681526020017f536865657368000000000000000000000000000000000000000000000000000081525081526020016040518060400160405280600681526020017f57687954686f000000000000000000000000000000000000000000000000000081525081526020016040518060400160405280600181526020017f490000000000000000000000000000000000000000000000000000000000000081525081526020016040518060400160405280600481526020017f546865790000000000000000000000000000000000000000000000000000000081525081526020016040518060400160405280600981526020017f54686f736547757973000000000000000000000000000000000000000000000081525081526020016040518060400160405280600781526020017f416c6c4f66557300000000000000000000000000000000000000000000000000815250815250600b9060156200055c9291906200131f565b50604051806102a001604052806040518060400160405280600981526020017f4c6f6f6b4174486973000000000000000000000000000000000000000000000081525081526020016040518060400160405280600981526020017f4c6f6f6b4174486572000000000000000000000000000000000000000000000081525081526020016040518060400160405280600b81526020017f4c6f6f6b4174546865697200000000000000000000000000000000000000000081525081526020016040518060400160405280600981526020017f576174636854686174000000000000000000000000000000000000000000000081525081526020016040518060400160405280600981526020017f506f6b655468656972000000000000000000000000000000000000000000000081525081526020016040518060400160405280600781526020017f495361774869730000000000000000000000000000000000000000000000000081525081526020016040518060400160405280601081526020017f446964596f75536d656c6c54686569720000000000000000000000000000000081525081526020016040518060400160405280600b81526020017f49546f756368657349747300000000000000000000000000000000000000000081525081526020016040518060400160405280600b81526020017f576879446964546865697200000000000000000000000000000000000000000081525081526020016040518060400160405280600581526020017f486f77546f00000000000000000000000000000000000000000000000000000081525081526020016040518060400160405280600c81526020017f576865726527735468656972000000000000000000000000000000000000000081525081526020016040518060400160405280600881526020017f4c6f6f6b6564417400000000000000000000000000000000000000000000000081525081526020016040518060400160405280600a81526020017f5469636b6c65644869730000000000000000000000000000000000000000000081525081526020016040518060400160405280600c81526020017f536c61707065645468656972000000000000000000000000000000000000000081525081526020016040518060400160405280600781526020017f536f6c644974730000000000000000000000000000000000000000000000000081525081526020016040518060400160405280600881526020017f4c6f6f6b6564417400000000000000000000000000000000000000000000000081525081526020016040518060400160405280600981526020017f57616e7465644f7572000000000000000000000000000000000000000000000081525081526020016040518060400160405280600881526020017f4c6f6f6b7353757300000000000000000000000000000000000000000000000081525081526020016040518060400160405280601381526020017f5761746368696e67414d6f76696541626f75740000000000000000000000000081525081526020016040518060400160405280601681526020017f52656164696e6741426f6f6b52656c6174696e67546f0000000000000000000081525081526020016040518060400160405280601381526020017f57726f74654154686573697342617365644f6e00000000000000000000000000815250815250600c90601562000a509291906200131f565b50604051806102a001604052806040518060400160405280600681526020017f576166666c65000000000000000000000000000000000000000000000000000081525081526020016040518060400160405280600881526020017f496365437265616d00000000000000000000000000000000000000000000000081525081526020016040518060400160405280600781526020017f50616e63616b650000000000000000000000000000000000000000000000000081525081526020016040518060400160405280600781526020017f48616d737465720000000000000000000000000000000000000000000000000081525081526020016040518060400160405280600b81526020017f507269766174654b65797300000000000000000000000000000000000000000081525081526020016040518060400160405280600a81526020017f45544842616c616e63650000000000000000000000000000000000000000000081525081526020016040518060400160405280600881526020017f556e69636f726e7300000000000000000000000000000000000000000000000081525081526020016040518060400160405280600d81526020017f456c657068616e745475736b730000000000000000000000000000000000000081525081526020016040518060400160405280600b81526020017f447261676f6e42616c6c7300000000000000000000000000000000000000000081525081526020016040518060400160405280600981526020017f446f6765436f696e73000000000000000000000000000000000000000000000081525081526020016040518060400160405280600681526020017f4d6f76696573000000000000000000000000000000000000000000000000000081525081526020016040518060400160405280600a81526020017f47726173686f707065720000000000000000000000000000000000000000000081525081526020016040518060400160405280600a81526020017f4368657373426f6172640000000000000000000000000000000000000000000081525081526020016040518060400160405280600981526020017f506570654d656d6573000000000000000000000000000000000000000000000081525081526020016040518060400160405280600e81526020017f43686172697a617264505341313000000000000000000000000000000000000081525081526020016040518060400160405280600b81526020017f43727970746f50756e6b7300000000000000000000000000000000000000000081525081526020016040518060400160405280600d81526020017f43727970746f4b6974746965730000000000000000000000000000000000000081525081526020016040518060400160405280600b81526020017f436f666665654265616e7300000000000000000000000000000000000000000081525081526020016040518060400160405280600c81526020017f4469676974616c486f727365000000000000000000000000000000000000000081525081526020016040518060400160405280600881526020017f4e4654416c62756d00000000000000000000000000000000000000000000000081525081526020016040518060400160405280600481526020017f4265657200000000000000000000000000000000000000000000000000000000815250815250600d90601562000f449291906200131f565b506040518060c001604052806040518060400160405280600381526020017f726564000000000000000000000000000000000000000000000000000000000081525081526020016040518060400160405280600781526020017f233038433241380000000000000000000000000000000000000000000000000081525081526020016040518060400160405280600581526020017f626c61636b00000000000000000000000000000000000000000000000000000081525081526020016040518060400160405280600681526020017f79656c6c6f77000000000000000000000000000000000000000000000000000081525081526020016040518060400160405280600481526020017f626c75650000000000000000000000000000000000000000000000000000000081525081526020016040518060400160405280600581526020017f677265656e000000000000000000000000000000000000000000000000000000815250815250600e906006620010c292919062001386565b50348015620010d057600080fd5b506040518060400160405280600981526020017f5371756172654e465400000000000000000000000000000000000000000000008152506040518060400160405280600681526020017f53515541524500000000000000000000000000000000000000000000000000008152508160009080519060200190620011559291906200128e565b5080600190805190602001906200116e9291906200128e565b505050620011bc6040518060400160405280601e81526020017f54686973206973206d79204e465420636f6e74726163742e20576f6168210000815250620011c260201b620014521760201c565b620015a7565b6200126281604051602401620011d99190620014bb565b6040516020818303038152906040527f41304fac000000000000000000000000000000000000000000000000000000007bffffffffffffffffffffffffffffffffffffffffffffffffffffffff19166020820180517bffffffffffffffffffffffffffffffffffffffffffffffffffffffff83818316178352505050506200126560201b60201c565b50565b60008151905060006a636f6e736f6c652e6c6f679050602083016000808483855afa5050505050565b8280546200129c9062001531565b90600052602060002090601f016020900481019282620012c057600085556200130c565b82601f10620012db57805160ff19168380011785556200130c565b828001600101855582156200130c579182015b828111156200130b578251825591602001919060010190620012ee565b5b5090506200131b9190620013ed565b5090565b82805482825590600052602060002090810192821562001373579160200282015b8281111562001372578251829080519060200190620013619291906200128e565b509160200191906001019062001340565b5b5090506200138291906200140c565b5090565b828054828255906000526020600020908101928215620013da579160200282015b82811115620013d9578251829080519060200190620013c89291906200128e565b5091602001919060010190620013a7565b5b509050620013e991906200140c565b5090565b5b8082111562001408576000816000905550600101620013ee565b5090565b5b8082111562001430576000818162001426919062001434565b506001016200140d565b5090565b508054620014429062001531565b6000825580601f1062001456575062001477565b601f016020900490600052602060002090810190620014769190620013ed565b5b50565b60006200148782620014df565b620014938185620014ea565b9350620014a5818560208601620014fb565b620014b08162001596565b840191505092915050565b60006020820190508181036000830152620014d781846200147a565b905092915050565b600081519050919050565b600082825260208201905092915050565b60005b838110156200151b578082015181840152602081019050620014fe565b838111156200152b576000848401525b50505050565b600060028204905060018216806200154a57607f821691505b6020821081141562001561576200156062001567565b5b50919050565b7f4e487b7100000000000000000000000000000000000000000000000000000000600052602260045260246000fd5b6000601f19601f8301169050919050565b613cf180620015b76000396000f3fe608060405234801561001057600080fd5b506004361061012c5760003560e01c806377ec4ac0116100ad578063c575757a11610071578063c575757a14610367578063c87b56dd14610397578063de9d132f146103c7578063e18059b4146103d1578063e985e9c5146103ef5761012c565b806377ec4ac0146102c357806395d89b41146102e1578063a22cb465146102ff578063b187301f1461031b578063b88d4fde1461034b5761012c565b80632de38d68116100f45780632de38d68146101e757806342842e0e14610217578063514dc8c6146102335780636352211e1461026357806370a08231146102935761012c565b806301ffc9a71461013157806306fdde0314610161578063081812fc1461017f578063095ea7b3146101af57806323b872dd146101cb575b600080fd5b61014b600480360381019061014691906126e5565b61041f565b6040516101589190612e71565b60405180910390f35b610169610501565b6040516101769190612e8c565b60405180910390f35b61019960048036038101906101949190612737565b610593565b6040516101a69190612de1565b60405180910390f35b6101c960048036038101906101c491906126a9565b610618565b005b6101e560048036038101906101e091906125a3565b610730565b005b61020160048036038101906101fc9190612737565b610790565b60405161020e9190612e8c565b60405180910390f35b610231600480360381019061022c91906125a3565b6108ae565b005b61024d60048036038101906102489190612737565b6108ce565b60405161025a9190612e8c565b60405180910390f35b61027d60048036038101906102789190612737565b6109ec565b60405161028a9190612de1565b60405180910390f35b6102ad60048036038101906102a8919061253e565b610a9e565b6040516102ba919061310c565b60405180910390f35b6102cb610b56565b6040516102d8919061310c565b60405180910390f35b6102e9610b60565b6040516102f69190612e8c565b60405180910390f35b6103196004803603810190610314919061266d565b610bf2565b005b61033560048036038101906103309190612737565b610d73565b6040516103429190612e8c565b60405180910390f35b610365600480360381019061036091906125f2565b610e91565b005b610381600480360381019061037c9190612737565b610ef3565b60405161038e9190612e8c565b60405180910390f35b6103b160048036038101906103ac9190612737565b611011565b6040516103be9190612e8c565b60405180910390f35b6103cf611163565b005b6103d96113b8565b6040516103e6919061310c565b60405180910390f35b61040960048036038101906104049190612567565b6113be565b6040516104169190612e71565b60405180910390f35b60007f80ac58cd000000000000000000000000000000000000000000000000000000007bffffffffffffffffffffffffffffffffffffffffffffffffffffffff1916827bffffffffffffffffffffffffffffffffffffffffffffffffffffffff191614806104ea57507f5b5e139f000000000000000000000000000000000000000000000000000000007bffffffffffffffffffffffffffffffffffffffffffffffffffffffff1916827bffffffffffffffffffffffffffffffffffffffffffffffffffffffff1916145b806104fa57506104f9826114eb565b5b9050919050565b606060008054610510906133a0565b80601f016020809104026020016040519081016040528092919081815260200182805461053c906133a0565b80156105895780601f1061055e57610100808354040283529160200191610589565b820191906000526020600020905b81548152906001019060200180831161056c57829003601f168201915b5050505050905090565b600061059e82611555565b6105dd576040517f08c379a00000000000000000000000000000000000000000000000000000000081526004016105d49061304c565b60405180910390fd5b6004600083815260200190815260200160002060009054906101000a900473ffffffffffffffffffffffffffffffffffffffff169050919050565b6000610623826109ec565b90508073ffffffffffffffffffffffffffffffffffffffff168373ffffffffffffffffffffffffffffffffffffffff161415610694576040517f08c379a000000000000000000000000000000000000000000000000000000000815260040161068b906130ac565b60405180910390fd5b8073ffffffffffffffffffffffffffffffffffffffff166106b36115c1565b73ffffffffffffffffffffffffffffffffffffffff1614806106e257506106e1816106dc6115c1565b6113be565b5b610721576040517f08c379a000000000000000000000000000000000000000000000000000000000815260040161071890612f8c565b60405180910390fd5b61072b83836115c9565b505050565b61074161073b6115c1565b82611682565b610780576040517f08c379a0000000000000000000000000000000000000000000000000000000008152600401610777906130cc565b60405180910390fd5b61078b838383611760565b505050565b606060006107c46107a0846119bc565b6040516020016107b09190612d7b565b604051602081830303815290604052611b69565b9050600b80549050816107d7919061344c565b9050600b8181548110610813577f4e487b7100000000000000000000000000000000000000000000000000000000600052603260045260246000fd5b906000526020600020018054610828906133a0565b80601f0160208091040260200160405190810160405280929190818152602001828054610854906133a0565b80156108a15780601f10610876576101008083540402835291602001916108a1565b820191906000526020600020905b81548152906001019060200180831161088457829003601f168201915b5050505050915050919050565b6108c983838360405180602001604052806000815250610e91565b505050565b606060006109026108de846119bc565b6040516020016108ee9190612dbf565b604051602081830303815290604052611b69565b9050600e8054905081610915919061344c565b9050600e8181548110610951577f4e487b7100000000000000000000000000000000000000000000000000000000600052603260045260246000fd5b906000526020600020018054610966906133a0565b80601f0160208091040260200160405190810160405280929190818152602001828054610992906133a0565b80156109df5780601f106109b4576101008083540402835291602001916109df565b820191906000526020600020905b8154815290600101906020018083116109c257829003601f168201915b5050505050915050919050565b6000806002600084815260200190815260200160002060009054906101000a900473ffffffffffffffffffffffffffffffffffffffff169050600073ffffffffffffffffffffffffffffffffffffffff168173ffffffffffffffffffffffffffffffffffffffff161415610a95576040517f08c379a0000000000000000000000000000000000000000000000000000000008152600401610a8c90612fcc565b60405180910390fd5b80915050919050565b60008073ffffffffffffffffffffffffffffffffffffffff168273ffffffffffffffffffffffffffffffffffffffff161415610b0f576040517f08c379a0000000000000000000000000000000000000000000000000000000008152600401610b0690612fac565b60405180910390fd5b600360008373ffffffffffffffffffffffffffffffffffffffff1673ffffffffffffffffffffffffffffffffffffffff168152602001908152602001600020549050919050565b6000600754905090565b606060018054610b6f906133a0565b80601f0160208091040260200160405190810160405280929190818152602001828054610b9b906133a0565b8015610be85780601f10610bbd57610100808354040283529160200191610be8565b820191906000526020600020905b815481529060010190602001808311610bcb57829003601f168201915b5050505050905090565b610bfa6115c1565b73ffffffffffffffffffffffffffffffffffffffff168273ffffffffffffffffffffffffffffffffffffffff161415610c68576040517f08c379a0000000000000000000000000000000000000000000000000000000008152600401610c5f90612f4c565b60405180910390fd5b8060056000610c756115c1565b73ffffffffffffffffffffffffffffffffffffffff1673ffffffffffffffffffffffffffffffffffffffff16815260200190815260200160002060008473ffffffffffffffffffffffffffffffffffffffff1673ffffffffffffffffffffffffffffffffffffffff16815260200190815260200160002060006101000a81548160ff0219169083151502179055508173ffffffffffffffffffffffffffffffffffffffff16610d226115c1565b73ffffffffffffffffffffffffffffffffffffffff167f17307eab39ab6107e8899845ad3d59bd9653f200f220920489ca2b5937696c3183604051610d679190612e71565b60405180910390a35050565b60606000610da7610d83846119bc565b604051602001610d939190612d14565b604051602081830303815290604052611b69565b9050600c8054905081610dba919061344c565b9050600c8181548110610df6577f4e487b7100000000000000000000000000000000000000000000000000000000600052603260045260246000fd5b906000526020600020018054610e0b906133a0565b80601f0160208091040260200160405190810160405280929190818152602001828054610e37906133a0565b8015610e845780601f10610e5957610100808354040283529160200191610e84565b820191906000526020600020905b815481529060010190602001808311610e6757829003601f168201915b5050505050915050919050565b610ea2610e9c6115c1565b83611682565b610ee1576040517f08c379a0000000000000000000000000000000000000000000000000000000008152600401610ed8906130cc565b60405180910390fd5b610eed84848484611b9c565b50505050565b60606000610f27610f03846119bc565b604051602001610f139190612cf2565b604051602081830303815290604052611b69565b9050600d8054905081610f3a919061344c565b9050600d8181548110610f76577f4e487b7100000000000000000000000000000000000000000000000000000000600052603260045260246000fd5b906000526020600020018054610f8b906133a0565b80601f0160208091040260200160405190810160405280929190818152602001828054610fb7906133a0565b80156110045780601f10610fd957610100808354040283529160200191611004565b820191906000526020600020905b815481529060010190602001808311610fe757829003601f168201915b5050505050915050919050565b606061101c82611555565b61105b576040517f08c379a00000000000000000000000000000000000000000000000000000000081526004016110529061302c565b60405180910390fd5b600060066000848152602001908152602001600020805461107b906133a0565b80601f01602080910402602001604051908101604052809291908181526020018280546110a7906133a0565b80156110f45780601f106110c9576101008083540402835291602001916110f4565b820191906000526020600020905b8154815290600101906020018083116110d757829003601f168201915b505050505090506000611105611bf8565b905060008151141561111b57819250505061115e565b600082511115611150578082604051602001611138929190612c54565b6040516020818303038152906040529250505061115e565b61115984611c0f565b925050505b919050565b600a60075411156111a9576040517f08c379a00000000000000000000000000000000000000000000000000000000081526004016111a0906130ec565b60405180910390fd5b60006111b56008611cb6565b905060006111c282610790565b905060006111cf83610d73565b905060006111dc84610ef3565b905060008383836040516020016111f593929190612c78565b60405160208183030381529060405290506000611211866108ce565b90506000600982600a8560405160200161122e9493929190612ca9565b604051602081830303815290604052905060006112738461124e84611cc4565b60405160200161125f929190612d36565b604051602081830303815290604052611cc4565b90506000816040516020016112889190612d9d565b60405160208183030381529060405290506112d76040518060400160405280601581526020017f0a2d2d2d2d2d2d2d2d2d2d2d2d2d2d2d2d2d2d2d2d0000000000000000000000815250611452565b6112e081611452565b61131e6040518060400160405280601581526020017f2d2d2d2d2d2d2d2d2d2d2d2d2d2d2d2d2d2d2d2d0a0000000000000000000000815250611452565b611328338a611e82565b6113328982611ea0565b61133c6008611f14565b61135f604051806060016040528060258152602001613c57602591398a33611f2a565b600160075461136e91906131d5565b6007819055507febb98688741ffa4c7589bf325de30cf7becb63de567842e1ccdb6cb949fdc82c338a6040516113a5929190612e48565b60405180910390a1505050505050505050565b60075481565b6000600560008473ffffffffffffffffffffffffffffffffffffffff1673ffffffffffffffffffffffffffffffffffffffff16815260200190815260200160002060008373ffffffffffffffffffffffffffffffffffffffff1673ffffffffffffffffffffffffffffffffffffffff16815260200190815260200160002060009054906101000a900460ff16905092915050565b6114e8816040516024016114669190612e8c565b6040516020818303038152906040527f41304fac000000000000000000000000000000000000000000000000000000007bffffffffffffffffffffffffffffffffffffffffffffffffffffffff19166020820180517bffffffffffffffffffffffffffffffffffffffffffffffffffffffff8381831617835250505050611fc9565b50565b60007f01ffc9a7000000000000000000000000000000000000000000000000000000007bffffffffffffffffffffffffffffffffffffffffffffffffffffffff1916827bffffffffffffffffffffffffffffffffffffffffffffffffffffffff1916149050919050565b60008073ffffffffffffffffffffffffffffffffffffffff166002600084815260200190815260200160002060009054906101000a900473ffffffffffffffffffffffffffffffffffffffff1673ffffffffffffffffffffffffffffffffffffffff1614159050919050565b600033905090565b816004600083815260200190815260200160002060006101000a81548173ffffffffffffffffffffffffffffffffffffffff021916908373ffffffffffffffffffffffffffffffffffffffff160217905550808273ffffffffffffffffffffffffffffffffffffffff1661163c836109ec565b73ffffffffffffffffffffffffffffffffffffffff167f8c5be1e5ebec7d5bd14f71427d1e84f3dd0314c0f7b2291e5b200ac8c7c3b92560405160405180910390a45050565b600061168d82611555565b6116cc576040517f08c379a00000000000000000000000000000000000000000000000000000000081526004016116c390612f6c565b60405180910390fd5b60006116d7836109ec565b90508073ffffffffffffffffffffffffffffffffffffffff168473ffffffffffffffffffffffffffffffffffffffff16148061174657508373ffffffffffffffffffffffffffffffffffffffff1661172e84610593565b73ffffffffffffffffffffffffffffffffffffffff16145b80611757575061175681856113be565b5b91505092915050565b8273ffffffffffffffffffffffffffffffffffffffff16611780826109ec565b73ffffffffffffffffffffffffffffffffffffffff16146117d6576040517f08c379a00000000000000000000000000000000000000000000000000000000081526004016117cd9061306c565b60405180910390fd5b600073ffffffffffffffffffffffffffffffffffffffff168273ffffffffffffffffffffffffffffffffffffffff161415611846576040517f08c379a000000000000000000000000000000000000000000000000000000000815260040161183d90612f2c565b60405180910390fd5b611851838383611ff2565b61185c6000826115c9565b6001600360008573ffffffffffffffffffffffffffffffffffffffff1673ffffffffffffffffffffffffffffffffffffffff16815260200190815260200160002060008282546118ac91906132b6565b925050819055506001600360008473ffffffffffffffffffffffffffffffffffffffff1673ffffffffffffffffffffffffffffffffffffffff168152602001908152602001600020600082825461190391906131d5565b92505081905550816002600083815260200190815260200160002060006101000a81548173ffffffffffffffffffffffffffffffffffffffff021916908373ffffffffffffffffffffffffffffffffffffffff160217905550808273ffffffffffffffffffffffffffffffffffffffff168473ffffffffffffffffffffffffffffffffffffffff167fddf252ad1be2c89b69c2b068fc378daa952ba7f163c4a11628f55a4df523b3ef60405160405180910390a4505050565b60606000821415611a04576040518060400160405280600181526020017f30000000000000000000000000000000000000000000000000000000000000008152509050611b64565b600082905060005b60008214611a36578080611a1f90613403565b915050600a82611a2f919061322b565b9150611a0c565b60008167ffffffffffffffff811115611a78577f4e487b7100000000000000000000000000000000000000000000000000000000600052604160045260246000fd5b6040519080825280601f01601f191660200182016040528015611aaa5781602001600182028036833780820191505090505b5090505b60008514611b5d57600182611ac391906132b6565b9150600a85611ad2919061344c565b6030611ade91906131d5565b60f81b818381518110611b1a577f4e487b7100000000000000000000000000000000000000000000000000000000600052603260045260246000fd5b60200101907effffffffffffffffffffffffffffffffffffffffffffffffffffffffffffff1916908160001a905350600a85611b56919061322b565b9450611aae565b8093505050505b919050565b600081604051602001611b7c9190612c3d565b6040516020818303038152906040528051906020012060001c9050919050565b611ba7848484611760565b611bb384848484611ff7565b611bf2576040517f08c379a0000000000000000000000000000000000000000000000000000000008152600401611be990612eec565b60405180910390fd5b50505050565b606060405180602001604052806000815250905090565b6060611c1a82611555565b611c59576040517f08c379a0000000000000000000000000000000000000000000000000000000008152600401611c509061308c565b60405180910390fd5b6000611c63611bf8565b90506000815111611c835760405180602001604052806000815250611cae565b80611c8d846119bc565b604051602001611c9e929190612c54565b6040516020818303038152906040525b915050919050565b600081600001549050919050565b60606000825190506000811415611ced5760405180602001604052806000815250915050611e7d565b60006003600283611cfe91906131d5565b611d08919061322b565b6004611d14919061325c565b90506000602082611d2591906131d5565b67ffffffffffffffff811115611d64577f4e487b7100000000000000000000000000000000000000000000000000000000600052604160045260246000fd5b6040519080825280601f01601f191660200182016040528015611d965781602001600182028036833780820191505090505b5090506000604051806060016040528060408152602001613c7c604091399050600181016020830160005b86811015611e3a5760038101905062ffffff818a015116603f8160121c168401518060081b905060ff603f83600c1c1686015116810190508060081b905060ff603f8360061c1686015116810190508060081b905060ff603f831686015116810190508060e01b90508084526004840193505050611dc1565b506003860660018114611e545760028114611e6457611e6f565b613d3d60f01b6002830352611e6f565b603d60f81b60018303525b508484525050819450505050505b919050565b611e9c82826040518060200160405280600081525061218e565b5050565b611ea982611555565b611ee8576040517f08c379a0000000000000000000000000000000000000000000000000000000008152600401611edf90612fec565b60405180910390fd5b80600660008481526020019081526020016000209080519060200190611f0f9291906123ca565b505050565b6001816000016000828254019250508190555050565b611fc4838383604051602401611f4293929190612eae565b6040516020818303038152906040527fe3849f79000000000000000000000000000000000000000000000000000000007bffffffffffffffffffffffffffffffffffffffffffffffffffffffff19166020820180517bffffffffffffffffffffffffffffffffffffffffffffffffffffffff8381831617835250505050611fc9565b505050565b60008151905060006a636f6e736f6c652e6c6f679050602083016000808483855afa5050505050565b505050565b60006120188473ffffffffffffffffffffffffffffffffffffffff166121e9565b15612181578373ffffffffffffffffffffffffffffffffffffffff1663150b7a026120416115c1565b8786866040518563ffffffff1660e01b81526004016120639493929190612dfc565b602060405180830381600087803b15801561207d57600080fd5b505af19250505080156120ae57506040513d601f19601f820116820180604052508101906120ab919061270e565b60015b612131573d80600081146120de576040519150601f19603f3d011682016040523d82523d6000602084013e6120e3565b606091505b50600081511415612129576040517f08c379a000000000000000000000000000000000000000000000000000000000815260040161212090612eec565b60405180910390fd5b805181602001fd5b63150b7a0260e01b7bffffffffffffffffffffffffffffffffffffffffffffffffffffffff1916817bffffffffffffffffffffffffffffffffffffffffffffffffffffffff191614915050612186565b600190505b949350505050565b61219883836121fc565b6121a56000848484611ff7565b6121e4576040517f08c379a00000000000000000000000000000000000000000000000000000000081526004016121db90612eec565b60405180910390fd5b505050565b600080823b905060008111915050919050565b600073ffffffffffffffffffffffffffffffffffffffff168273ffffffffffffffffffffffffffffffffffffffff16141561226c576040517f08c379a00000000000000000000000000000000000000000000000000000000081526004016122639061300c565b60405180910390fd5b61227581611555565b156122b5576040517f08c379a00000000000000000000000000000000000000000000000000000000081526004016122ac90612f0c565b60405180910390fd5b6122c160008383611ff2565b6001600360008473ffffffffffffffffffffffffffffffffffffffff1673ffffffffffffffffffffffffffffffffffffffff168152602001908152602001600020600082825461231191906131d5565b92505081905550816002600083815260200190815260200160002060006101000a81548173ffffffffffffffffffffffffffffffffffffffff021916908373ffffffffffffffffffffffffffffffffffffffff160217905550808273ffffffffffffffffffffffffffffffffffffffff16600073ffffffffffffffffffffffffffffffffffffffff167fddf252ad1be2c89b69c2b068fc378daa952ba7f163c4a11628f55a4df523b3ef60405160405180910390a45050565b8280546123d6906133a0565b90600052602060002090601f0160209004810192826123f8576000855561243f565b82601f1061241157805160ff191683800117855561243f565b8280016001018555821561243f579182015b8281111561243e578251825591602001919060010190612423565b5b50905061244c9190612450565b5090565b5b80821115612469576000816000905550600101612451565b5090565b600061248061247b8461314c565b613127565b90508281526020810184848401111561249857600080fd5b6124a384828561335e565b509392505050565b6000813590506124ba81613bfa565b92915050565b6000813590506124cf81613c11565b92915050565b6000813590506124e481613c28565b92915050565b6000815190506124f981613c28565b92915050565b600082601f83011261251057600080fd5b813561252084826020860161246d565b91505092915050565b60008135905061253881613c3f565b92915050565b60006020828403121561255057600080fd5b600061255e848285016124ab565b91505092915050565b6000806040838503121561257a57600080fd5b6000612588858286016124ab565b9250506020612599858286016124ab565b9150509250929050565b6000806000606084860312156125b857600080fd5b60006125c6868287016124ab565b93505060206125d7868287016124ab565b92505060406125e886828701612529565b9150509250925092565b6000806000806080858703121561260857600080fd5b6000612616878288016124ab565b9450506020612627878288016124ab565b935050604061263887828801612529565b925050606085013567ffffffffffffffff81111561265557600080fd5b612661878288016124ff565b91505092959194509250565b6000806040838503121561268057600080fd5b600061268e858286016124ab565b925050602061269f858286016124c0565b9150509250929050565b600080604083850312156126bc57600080fd5b60006126ca858286016124ab565b92505060206126db85828601612529565b9150509250929050565b6000602082840312156126f757600080fd5b6000612705848285016124d5565b91505092915050565b60006020828403121561272057600080fd5b600061272e848285016124ea565b91505092915050565b60006020828403121561274957600080fd5b600061275784828501612529565b91505092915050565b612769816132ea565b82525050565b612778816132fc565b82525050565b600061278982613192565b61279381856131a8565b93506127a381856020860161336d565b6127ac81613539565b840191505092915050565b60006127c28261319d565b6127cc81856131b9565b93506127dc81856020860161336d565b6127e581613539565b840191505092915050565b60006127fb8261319d565b61280581856131ca565b935061281581856020860161336d565b80840191505092915050565b6000815461282e816133a0565b61283881866131ca565b94506001821660008114612853576001811461286457612897565b60ff19831686528186019350612897565b61286d8561317d565b60005b8381101561288f57815481890152600182019150602081019050612870565b838801955050505b50505092915050565b60006128ad6032836131b9565b91506128b88261354a565b604082019050919050565b60006128d0601c836131b9565b91506128db82613599565b602082019050919050565b60006128f3600a836131ca565b91506128fe826135c2565b600a82019050919050565b60006129166024836131b9565b9150612921826135eb565b604082019050919050565b60006129396019836131b9565b91506129448261363a565b602082019050919050565b600061295c6063836131ca565b915061296782613663565b606382019050919050565b600061297f600b836131ca565b915061298a826136fe565b600b82019050919050565b60006129a2602c836131b9565b91506129ad82613727565b604082019050919050565b60006129c5600d836131ca565b91506129d082613776565b600d82019050919050565b60006129e86038836131b9565b91506129f38261379f565b604082019050919050565b6000612a0b602a836131b9565b9150612a16826137ee565b604082019050919050565b6000612a2e6029836131b9565b9150612a398261383d565b604082019050919050565b6000612a51602e836131b9565b9150612a5c8261388c565b604082019050919050565b6000612a746002836131ca565b9150612a7f826138db565b600282019050919050565b6000612a976020836131b9565b9150612aa282613904565b602082019050919050565b6000612aba6031836131b9565b9150612ac58261392d565b604082019050919050565b6000612add602c836131b9565b9150612ae88261397c565b604082019050919050565b6000612b006029836131b9565b9150612b0b826139cb565b604082019050919050565b6000612b23602f836131b9565b9150612b2e82613a1a565b604082019050919050565b6000612b46600a836131ca565b9150612b5182613a69565b600a82019050919050565b6000612b696021836131b9565b9150612b7482613a92565b604082019050919050565b6000612b8c600a836131ca565b9150612b9782613ae1565b600a82019050919050565b6000612baf601d836131ca565b9150612bba82613b0a565b601d82019050919050565b6000612bd26031836131b9565b9150612bdd82613b33565b604082019050919050565b6000612bf5603d836131b9565b9150612c0082613b82565b604082019050919050565b6000612c186005836131ca565b9150612c2382613bd1565b600582019050919050565b612c3781613354565b82525050565b6000612c4982846127f0565b915081905092915050565b6000612c6082856127f0565b9150612c6c82846127f0565b91508190509392505050565b6000612c8482866127f0565b9150612c9082856127f0565b9150612c9c82846127f0565b9150819050949350505050565b6000612cb58287612821565b9150612cc182866127f0565b9150612ccd8285612821565b9150612cd982846127f0565b9150612ce4826129b8565b915081905095945050505050565b6000612cfd826128e6565b9150612d0982846127f0565b915081905092915050565b6000612d1f82612972565b9150612d2b82846127f0565b915081905092915050565b6000612d4182612b39565b9150612d4d82856127f0565b9150612d588261294f565b9150612d6482846127f0565b9150612d6f82612a67565b91508190509392505050565b6000612d8682612b7f565b9150612d9282846127f0565b915081905092915050565b6000612da882612ba2565b9150612db482846127f0565b915081905092915050565b6000612dca82612c0b565b9150612dd682846127f0565b915081905092915050565b6000602082019050612df66000830184612760565b92915050565b6000608082019050612e116000830187612760565b612e1e6020830186612760565b612e2b6040830185612c2e565b8181036060830152612e3d818461277e565b905095945050505050565b6000604082019050612e5d6000830185612760565b612e6a6020830184612c2e565b9392505050565b6000602082019050612e86600083018461276f565b92915050565b60006020820190508181036000830152612ea681846127b7565b905092915050565b60006060820190508181036000830152612ec881866127b7565b9050612ed76020830185612c2e565b612ee46040830184612760565b949350505050565b60006020820190508181036000830152612f05816128a0565b9050919050565b60006020820190508181036000830152612f25816128c3565b9050919050565b60006020820190508181036000830152612f4581612909565b9050919050565b60006020820190508181036000830152612f658161292c565b9050919050565b60006020820190508181036000830152612f8581612995565b9050919050565b60006020820190508181036000830152612fa5816129db565b9050919050565b60006020820190508181036000830152612fc5816129fe565b9050919050565b60006020820190508181036000830152612fe581612a21565b9050919050565b6000602082019050818103600083015261300581612a44565b9050919050565b6000602082019050818103600083015261302581612a8a565b9050919050565b6000602082019050818103600083015261304581612aad565b9050919050565b6000602082019050818103600083015261306581612ad0565b9050919050565b6000602082019050818103600083015261308581612af3565b9050919050565b600060208201905081810360008301526130a581612b16565b9050919050565b600060208201905081810360008301526130c581612b5c565b9050919050565b600060208201905081810360008301526130e581612bc5565b9050919050565b6000602082019050818103600083015261310581612be8565b9050919050565b60006020820190506131216000830184612c2e565b92915050565b6000613131613142565b905061313d82826133d2565b919050565b6000604051905090565b600067ffffffffffffffff8211156131675761316661350a565b5b61317082613539565b9050602081019050919050565b60008190508160005260206000209050919050565b600081519050919050565b600081519050919050565b600082825260208201905092915050565b600082825260208201905092915050565b600081905092915050565b60006131e082613354565b91506131eb83613354565b9250827fffffffffffffffffffffffffffffffffffffffffffffffffffffffffffffffff038211156132205761321f61347d565b5b828201905092915050565b600061323682613354565b915061324183613354565b925082613251576132506134ac565b5b828204905092915050565b600061326782613354565b915061327283613354565b9250817fffffffffffffffffffffffffffffffffffffffffffffffffffffffffffffffff04831182151516156132ab576132aa61347d565b5b828202905092915050565b60006132c182613354565b91506132cc83613354565b9250828210156132df576132de61347d565b5b828203905092915050565b60006132f582613334565b9050919050565b60008115159050919050565b60007fffffffff0000000000000000000000000000000000000000000000000000000082169050919050565b600073ffffffffffffffffffffffffffffffffffffffff82169050919050565b6000819050919050565b82818337600083830152505050565b60005b8381101561338b578082015181840152602081019050613370565b8381111561339a576000848401525b50505050565b600060028204905060018216806133b857607f821691505b602082108114156133cc576133cb6134db565b5b50919050565b6133db82613539565b810181811067ffffffffffffffff821117156133fa576133f961350a565b5b80604052505050565b600061340e82613354565b91507fffffffffffffffffffffffffffffffffffffffffffffffffffffffffffffffff8214156134415761344061347d565b5b600182019050919050565b600061345782613354565b915061346283613354565b925082613472576134716134ac565b5b828206905092915050565b7f4e487b7100000000000000000000000000000000000000000000000000000000600052601160045260246000fd5b7f4e487b7100000000000000000000000000000000000000000000000000000000600052601260045260246000fd5b7f4e487b7100000000000000000000000000000000000000000000000000000000600052602260045260246000fd5b7f4e487b7100000000000000000000000000000000000000000000000000000000600052604160045260246000fd5b6000601f19601f8301169050919050565b7f4552433732313a207472616e7366657220746f206e6f6e20455243373231526560008201527f63656976657220696d706c656d656e7465720000000000000000000000000000602082015250565b7f4552433732313a20746f6b656e20616c7265616479206d696e74656400000000600082015250565b7f54484952445f574f524400000000000000000000000000000000000000000000600082015250565b7f4552433732313a207472616e7366657220746f20746865207a65726f2061646460008201527f7265737300000000000000000000000000000000000000000000000000000000602082015250565b7f4552433732313a20617070726f766520746f2063616c6c657200000000000000600082015250565b7f222c20226465736372697074696f6e223a20224120686967686c79206163636c60008201527f61696d656420636f6c6c656374696f6e206f6620737175617265732e222c202260208201527f696d616765223a2022646174613a696d6167652f7376672b786d6c3b6261736560408201527f36342c0000000000000000000000000000000000000000000000000000000000606082015250565b7f5345434f4e445f574f5244000000000000000000000000000000000000000000600082015250565b7f4552433732313a206f70657261746f7220717565727920666f72206e6f6e657860008201527f697374656e7420746f6b656e0000000000000000000000000000000000000000602082015250565b7f3c2f746578743e3c2f7376673e00000000000000000000000000000000000000600082015250565b7f4552433732313a20617070726f76652063616c6c6572206973206e6f74206f7760008201527f6e6572206e6f7220617070726f76656420666f7220616c6c0000000000000000602082015250565b7f4552433732313a2062616c616e636520717565727920666f7220746865207a6560008201527f726f206164647265737300000000000000000000000000000000000000000000602082015250565b7f4552433732313a206f776e657220717565727920666f72206e6f6e657869737460008201527f656e7420746f6b656e0000000000000000000000000000000000000000000000602082015250565b7f45524337323155524953746f726167653a2055524920736574206f66206e6f6e60008201527f6578697374656e7420746f6b656e000000000000000000000000000000000000602082015250565b7f227d000000000000000000000000000000000000000000000000000000000000600082015250565b7f4552433732313a206d696e7420746f20746865207a65726f2061646472657373600082015250565b7f45524337323155524953746f726167653a2055524920717565727920666f722060008201527f6e6f6e6578697374656e7420746f6b656e000000000000000000000000000000602082015250565b7f4552433732313a20617070726f76656420717565727920666f72206e6f6e657860008201527f697374656e7420746f6b656e0000000000000000000000000000000000000000602082015250565b7f4552433732313a207472616e73666572206f6620746f6b656e2074686174206960008201527f73206e6f74206f776e0000000000000000000000000000000000000000000000602082015250565b7f4552433732314d657461646174613a2055524920717565727920666f72206e6f60008201527f6e6578697374656e7420746f6b656e0000000000000000000000000000000000602082015250565b7f7b226e616d65223a202200000000000000000000000000000000000000000000600082015250565b7f4552433732313a20617070726f76616c20746f2063757272656e74206f776e6560008201527f7200000000000000000000000000000000000000000000000000000000000000602082015250565b7f46495253545f574f524400000000000000000000000000000000000000000000600082015250565b7f646174613a6170706c69636174696f6e2f6a736f6e3b6261736536342c000000600082015250565b7f4552433732313a207472616e736665722063616c6c6572206973206e6f74206f60008201527f776e6572206e6f7220617070726f766564000000000000000000000000000000602082015250565b7f536f7272792c206e6f206d6f7265204e4654732061726520676f696e6720746f60008201527f206265206d696e74656420696e207468697320636f6c6c656374696f6e000000602082015250565b7f434f4c4f52000000000000000000000000000000000000000000000000000000600082015250565b613c03816132ea565b8114613c0e57600080fd5b50565b613c1a816132fc565b8114613c2557600080fd5b50565b613c3181613308565b8114613c3c57600080fd5b50565b613c4881613354565b8114613c5357600080fd5b5056fe416e204e465420772f20494420257320686173206265656e206d696e74656420746f2025734142434445464748494a4b4c4d4e4f505152535455565758595a6162636465666768696a6b6c6d6e6f707172737475767778797a303132333435363738392b2fa2646970667358221220a53a5bd721df67ae18b77b0d3193d58aa18d0772f04e7b2488ecb6e9b5bd63ea64736f6c634300080400333c73766720786d6c6e733d27687474703a2f2f7777772e77332e6f72672f323030302f73766727207072657365727665417370656374526174696f3d27784d696e594d696e206d656574272076696577426f783d273020302033353020333530273e3c7374796c653e2e62617365207b2066696c6c3a2077686974653b20666f6e742d66616d696c793a2073657269663b20666f6e742d73697a653a20323470783b207d3c2f7374796c653e3c726563742077696474683d273130302527206865696768743d2731303025272066696c6c3d27272f3e3c7465787420783d273530252720793d273530252720636c6173733d27626173652720646f6d696e616e742d626173656c696e653d276d6964646c652720746578742d616e63686f723d276d6964646c65273e",
  "linkReferences": {},
  "deployedLinkReferences": {}
}